{
  "contractName": "RepContract",
  "abi": [
    {
      "constant": false,
      "inputs": [
        {
          "internalType": "address",
          "name": "user",
          "type": "address"
        },
        {
          "internalType": "uint256",
          "name": "repValue",
          "type": "uint256"
        }
      ],
      "name": "setRep",
      "outputs": [],
      "payable": false,
      "stateMutability": "nonpayable",
      "type": "function"
    },
    {
      "constant": false,
      "inputs": [
        {
          "internalType": "address",
          "name": "x",
          "type": "address"
        }
      ],
      "name": "set",
      "outputs": [],
      "payable": false,
      "stateMutability": "nonpayable",
      "type": "function"
    },
    {
      "constant": true,
      "inputs": [],
      "name": "get",
      "outputs": [
        {
          "internalType": "address",
          "name": "",
          "type": "address"
        }
      ],
      "payable": false,
      "stateMutability": "view",
      "type": "function"
    },
    {
      "constant": true,
      "inputs": [
        {
          "internalType": "uint256",
          "name": "categoryIndex",
          "type": "uint256"
        },
        {
          "internalType": "address",
          "name": "user",
          "type": "address"
        }
      ],
      "name": "getRepValue",
      "outputs": [
        {
          "internalType": "uint256",
          "name": "",
          "type": "uint256"
        }
      ],
      "payable": false,
      "stateMutability": "view",
      "type": "function"
    }
  ],
  "bytecode": "0x608060405234801561001057600080fd5b50610302806100206000396000f3fe608060405234801561001057600080fd5b506004361061004c5760003560e01c80631b4ca1cf146100515780632801617e146100b35780636d4ce63c146100f7578063735500b814610141575b600080fd5b61009d6004803603604081101561006757600080fd5b8101908080359060200190929190803573ffffffffffffffffffffffffffffffffffffffff16906020019092919050505061018f565b6040518082815260200191505060405180910390f35b6100f5600480360360208110156100c957600080fd5b81019080803573ffffffffffffffffffffffffffffffffffffffff1690602001909291905050506101f1565b005b6100ff610234565b604051808273ffffffffffffffffffffffffffffffffffffffff1673ffffffffffffffffffffffffffffffffffffffff16815260200191505060405180910390f35b61018d6004803603604081101561015757600080fd5b81019080803573ffffffffffffffffffffffffffffffffffffffff1690602001909291908035906020019092919050505061025d565b005b6000600260008373ffffffffffffffffffffffffffffffffffffffff1673ffffffffffffffffffffffffffffffffffffffff16815260200190815260200160002060000183815481106101de57fe5b9060005260206000200154905092915050565b806000806101000a81548173ffffffffffffffffffffffffffffffffffffffff021916908373ffffffffffffffffffffffffffffffffffffffff16021790555050565b60008060009054906101000a900473ffffffffffffffffffffffffffffffffffffffff16905090565b600260008373ffffffffffffffffffffffffffffffffffffffff1673ffffffffffffffffffffffffffffffffffffffff168152602001908152602001600020600001819080600181540180825580915050906001820390600052602060002001600090919290919091505550505056fea265627a7a72315820fa16b0dc6dc602af11a98a8e3732d6c2e93dce69fa381751f882bc21735c497864736f6c634300050c0032",
  "source": "pragma solidity ^0.5.0;\r\n\r\ncontract RepContract {\r\n  address storedData;\r\n  struct RepObject {\r\n    uint[] repValues;\r\n    bytes32[] repCategories;\r\n  }\r\n  mapping(address => uint) simpleRep;\r\n  mapping (address => RepObject) repProfile;\r\n//address user, uint index, \r\n  function setRep(address user, uint repValue) public {\r\n    // if (repProfile[user].repValues.length > index) {\r\n    //     repProfile[user].repValues[index] = repValue;\r\n    // } else {\r\n        repProfile[user].repValues.push(repValue);\r\n    //}\r\n  }\r\n\r\n  function set(address x) public {\r\n    storedData = x;\r\n  }\r\n\r\n   function get() public view returns (address) {\r\n    return storedData;\r\n  }\r\n\r\n  function getRepValue(uint categoryIndex, address user) public view returns (uint) {\r\n    return repProfile[user].repValues[categoryIndex];\r\n  }\r\n}\r\n",
  "sourcePath": "C:/Users/Tim/ethwat2/contracts/RepContract.sol",
  "compiler": {
    "name": "solc",
    "version": "0.5.12+commit.7709ece9.Emscripten.clang"
  },
  "schemaVersion": "3.0.18",
  "updatedAt": "2019-11-10T06:08:05.927Z",
  "devdoc": {
    "methods": {}
  },
  "userdoc": {
    "methods": {}
  }
}