{
  "contractName": "RepContract",
  "abi": [
    {
      "constant": false,
      "inputs": [
        {
          "internalType": "address",
          "name": "user",
          "type": "address"
        },
        {
          "internalType": "uint256",
          "name": "index",
          "type": "uint256"
        },
        {
          "internalType": "uint256",
          "name": "repValue",
          "type": "uint256"
        }
      ],
      "name": "setRep",
      "outputs": [],
      "payable": false,
      "stateMutability": "nonpayable",
      "type": "function"
    },
    {
      "constant": true,
      "inputs": [
        {
          "internalType": "uint256",
          "name": "repIndex",
          "type": "uint256"
        },
        {
          "internalType": "address",
          "name": "user",
          "type": "address"
        }
      ],
      "name": "getRepValue",
      "outputs": [
        {
          "internalType": "uint256",
          "name": "",
          "type": "uint256"
        }
      ],
      "payable": false,
      "stateMutability": "view",
      "type": "function"
    }
  ],
  "bytecode": "0x608060405234801561001057600080fd5b506102ac806100206000396000f3fe608060405234801561001057600080fd5b50600436106100365760003560e01c80631b4ca1cf1461003b578063b6ad37cd1461009d575b600080fd5b6100876004803603604081101561005157600080fd5b8101908080359060200190929190803573ffffffffffffffffffffffffffffffffffffffff1690602001909291905050506100f5565b6040518082815260200191505060405180910390f35b6100f3600480360360608110156100b357600080fd5b81019080803573ffffffffffffffffffffffffffffffffffffffff1690602001909291908035906020019092919080359060200190929190505050610157565b005b6000600160008373ffffffffffffffffffffffffffffffffffffffff1673ffffffffffffffffffffffffffffffffffffffff168152602001908152602001600020600001838154811061014457fe5b9060005260206000200154905092915050565b81600160008573ffffffffffffffffffffffffffffffffffffffff1673ffffffffffffffffffffffffffffffffffffffff1681526020019081526020016000206000018054905011156102055780600160008573ffffffffffffffffffffffffffffffffffffffff1673ffffffffffffffffffffffffffffffffffffffff16815260200190815260200160002060000183815481106101f257fe5b9060005260206000200181905550610272565b600160008473ffffffffffffffffffffffffffffffffffffffff1673ffffffffffffffffffffffffffffffffffffffff1681526020019081526020016000206000018190806001815401808255809150509060018203906000526020600020016000909192909190915055505b50505056fea265627a7a72315820b4ed1891c03971dc3122115d887521da922422b3f37e9e996f4e1a0574ff7ddb64736f6c634300050c0032",
  "source": "pragma solidity ^0.5.0;\r\n\r\ncontract RepContract {\r\n  uint storedData;\r\n  struct RepObject {\r\n    uint[] repValues;\r\n    bytes32[] repCategories;\r\n  }\r\n  mapping (address => RepObject) repProfile;\r\n\r\n  function setRep(address user, uint index, uint repValue) public {\r\n    if (repProfile[user].repValues.length > index) {\r\n        repProfile[user].repValues[index] = repValue;\r\n    } else {\r\n        repProfile[user].repValues.push(repValue);\r\n    }\r\n  }\r\n\r\n  function getRepValue(uint repIndex, address user) public view returns (uint) {\r\n    return repProfile[user].repValues[repIndex];\r\n  }\r\n}\r\n",
  "sourcePath": "C:/Users/Tim/ethwat2/contracts/RepContract.sol",
  "compiler": {
    "name": "solc",
    "version": "0.5.12+commit.7709ece9.Emscripten.clang"
  },
  "schemaVersion": "3.0.18",
  "updatedAt": "2019-11-09T21:08:09.840Z",
  "devdoc": {
    "methods": {}
  },
  "userdoc": {
    "methods": {}
  }
}